:020000040800F2
:1000000000040020C1070008710B0008710B0008F4
:10001000710B0008710B0008710B0008710B0008D0
:10002000710B0008710B0008710B000891060008A5
:10003000710B0008710B0008710B000861070008C4
:10004000710B0008710B0008710B0008710B0008A0
:10005000710B0008710B0008710B0008710B000890
:10006000710B0008710B0008710B000851090008A2
:1000700081090008B1090008E1090008110A000817
:10008000410A0008710A0008710B0008710B000892
:10009000710B0008710B0008710B0008710B000850
:1000A000710B0008710B0008710B0008710B000840
:1000B000710B0008710B0008710B0008710B000830
:1000C000710B0008710B0008710B0008710B000820
:1000D000710B0008710B0008710B0008710B000810
:0C00E000710B0008710B0008710B000888
:1000F000002273B5134608213A4800F0A1FD3948A3
:1001000000F03EFD00F0B4FB00F09AF9364B99691F
:100110009A69C90742F001029A61344A506820F096
:10012000E06040F00070506003D49A6922F0010250
:100130009A612F484FF4614100F032FF2D4D294B59
:100140006A6899682A488DE806002B490CCB00F0B4
:10015000E7FE6C68294E14F002040FD06B68284843
:1001600023F480736B600021326901F0E1F82448C8
:1001700040F2CE7101F004F9012409E0204840F278
:10018000CE71326901F0D4F81D48214601F0F8F82B
:100190001C48316901F0A4F84FF0FF3000F058F826
:1001A000C207054609D516480CB1002101E040F20E
:1001B000CE7101F0E5F884F00104AB07ECD50D4BEE
:1001C0005A6842F480725A600F4A116941F0040182
:1001D000116102221A601A6842F004021A6030BFEC
:1001E000DAE700BF5808002000100240000001407C
:1001F000640800200070004020160008700A0020EB
:10020000400A00203809002000ED00E00000000056
:1002100038B50D46044610B90C4800F059FEA369E4
:1002200045EA0301237CA161082B03D163691942CC
:1002300006D138BD092B08D163691940994204D110
:10024000204600F02DF80023436138BDEA14000871
:1002500038B50B4B05461C69202383F31188A06930
:10026000284005D10820656100F04AF8A0692840BF
:10027000A36923EA0003A361002383F3118838BD37
:10028000700A0020000000000000000000000000D4
:10029000024B00225B601B609A607047700A00206E
:1002A000002303748168054B1B689A688A42FBD25D
:1002B0005A6803604260586010607047700A0020FE
:1002C00008B5202383F31188037C83B1032B08D165
:1002D00043699A6801329A6090E80C001A600268DB
:1002E00053604FF0FF334361FFF7DAFF002383F3DE
:1002F000118808BD000000000000000000000000A0
:10030000064B14221969087418688A7402685360CD
:100310001A6018610123037400F032BA700A0020D9
:1003200030B54B1C87B005460A4C0DD0236901A897
:10033000094A00F05DF92846FFF7E2FF049B2BB164
:1003400001A800F07DF901E0FFF7DAFF23695869A1
:1003500007B030BD700A0020C10200080000000094
:1003600038B50C4D41612B6981689A680446914209
:1003700003D8BDE83840FFF793BF1846FFF790FF5A
:1003800001232C61014623742046BDE8384000F06B
:10039000F7B900BF700A0020000000000000000054
:1003A00038B50A4C236825691A68284654602260CB
:1003B000012223611A741423AB74FFF771FF2069C3
:1003C0002946BDE8384000F0DBB900BF700A0020C4
:1003D0000C4B10B51868196902688C6853601A6074
:1003E00001221861027400220A741B689A68A242F2
:1003F000FBD85A680B604A60BDE810405960116034
:1004000000F0BEB9700A00200000000000000000EB
:10041000034B1B699B7C0BB9FFF7C2BFFFF7D8BF2B
:10042000700A002000000000000000000000000032
:1004300030BFFDE7000000000000000000000000E9
:1004400007B500F035F9FFF723FF00F0C1F84021B0
:100450000A4800F045F80A4B186101230374002391
:1004600083F3118862B6902100930122054B064860
:1004700000F06EF803B05DF804FB00BF0008002038
:10048000700A002031040008880A002000000000E3
:1004900038B5114B1B699A7C0AB1013A9A740F4B1B
:1004A000DA681C460132DA601A689A4213D0916801
:1004B0000139916022680949936863B91068D56869
:1004C0000860D360416083F311881069A847202336
:1004D00083F31188EEE738BD700A0020180B002066
:1004E00002228160027414210022427481748261AC
:1004F0007047000000000000000000000000000045
:10050000F8B50D4616461F46044620B17F2902D98C
:100510007F2A00D813B90A4800F0DAFC243D069B74
:100520006019E06067514360064B142203620223A6
:10053000237400236374A274A660A3612046F8BDEF
:1005400040150008910700080000000000000000AE
:1005500037B51D46202383F31188069C2B46009453
:10056000FFF7CEFF00210446FFF7FAFE002383F3D6
:100570001188204603B030BD0000000000000000DC
:1005800010B5044610B9074800F0A2FC202383F3FD
:10059000118806202146FFF7C3FE002383F311884C
:1005A00010BD00BF6615000800000000000000003C
:1005B000024B1B6958610E20FFF7A2BE700A002093
:1005C000202383F31188FFF7F3BF00000000000031
:1005D000044B4FF0FF329A6000225B601B60DA60D0
:1005E000704700BF180B0020000000000000000052
:1005F000F8B50D4616461F46044608B102B111B9BA
:100600000C4800F065FC0C4A27611368E66011464F
:100610009A68AA4202D2AD1A1B68F9E75A688B425F
:10062000236062605C601460A56002D09A68551B0C
:100630009D60F8BD80150008180B00200000000028
:1006400010B5044610B9094800F042FC2368084A76
:10065000934203D09968A2680A449A606268136062
:1006600023685A600023E36010BD00BF8D150008A9
:10067000180B002000000000000000000000000037
:10068000FFF7C6FE00DF00000000000000000000D1
:10069000EFF30983203383F30988002383F3118860
:1006A0007047000000000000000000000000000093
:1006B00008B50A4B00229A60094A0720DA60102127
:1006C00000F02EF90A204FF4007100F029F9BDE87E
:1006D00008400B20802100F023B900BF00ED00E0AE
:1006E0000003FA0500000000000000000000000008
:1006F000202383F31188144B5B6813F4006320D02C
:10070000EFF30983A3F1200282F309884FF080728E
:1007100043F8042C0D4A11691268887C9268896834
:1007200020B18A4294BF0022012203E08A4234BFF2
:10073000002201220AB1064A00E0064A43F8082CCA
:10074000704783F31188704700ED00E0700A0020C5
:100750008106000884060008000000000000000078
:1007600008B5202383F31188FFF792FE002383F35B
:100770001188BDE80840FFF7BBBF00000000000083
:100780002DE9F04FC1F80CD0D0F80CD0BDE8F08FB7
:10079000002383F311882846A047FFF711FF704715
:1007A0007047000000000000000000000000000092
:1007B000FEE7000000000000000000000000000054
:1007C00072B61E4B83F30988022383F31488BFF3A8
:1007D0006F8F1B4B194A1B498B4204D24FF0553186
:1007E00043F8041BF7E7184B934204D24FF05531FE
:1007F00043F8041BF8E700F03BFA0023134A1449BE
:100800009818884204D21349595899500433F5E78F
:10081000114B124A934203D2002243F8042BF8E70B
:10082000FFF7BEFF0E4C0F4B9C4203D254F8043B23
:100830009847F8E7FFF75CFCFFF7BAFF00080020D5
:100840000000002000040020000400200008002018
:10085000000800204F16000800080020280B002088
:10086000EC000008EC0000080000000000000000A0
:1008700000F006B8000000000000000000000000CA
:100880000D4B00211A694FF0FF321A611961D868C7
:10089000DA600A4AD96010684FF47A72B0FBF2F05D
:1008A000074A01385060916007211160DA6942F00F
:1008B0008052DA6100F0F4B80010024058080020BD
:1008C00010E000E000000000000000000000000058
:1008D00000F0030230B5D200FF249440914020F094
:1008E000030303F1604303F56143D3F8005301228E
:1008F00025EA04040C43C3F8004300F01F0302FA86
:1009000003F34009800000F1604000F56140C0F849
:100910008031036030BD00000000000000000000D6
:1009200020F0030300F00300C000FF22824081405A
:1009300003F1604310B503F56D439C6924EA02029C
:100940000A439A6110BD0000000000000000000092
:1009500008B5074B0F2219685A60064A01F00F01CB
:1009600013680BB150689847BDE80840FFF7C0BE58
:10097000000002401C0800200000000000000000F1
:1009800008B5074BF02219685A60064AC1F30311F3
:1009900093680BB1D0689847BDE80840FFF7A8BE40
:1009A000000002401C0800200000000000000000C1
:1009B00008B5084B4FF4706219685A60064AC1F3D3
:1009C000032113690BB150699847BDE80840FFF750
:1009D0008FBE00BF000002401C0800200000000085
:1009E00008B5084B4FF4704219685A60064AC1F3C3
:1009F000033193690BB1D0699847BDE80840FFF710
:100A000077BE00BF000002401C080020000000006C
:100A100008B5084B4FF4702219685A60064AC1F3B2
:100A20000341136A0BB1506A9847BDE80840FFF7CD
:100A30005FBE00BF000002401C0800200000000054
:100A400008B5084B4FF4700219685A60064AC1F3A2
:100A50000351936A0BB1D06A9847BDE80840FFF78D
:100A600047BE00BF000002401C080020000000003C
:100A700008B5084B4FF0706219685A60064AC1F316
:100A80000361136B0BB1506B9847BDE80840FFF74B
:100A90002FBE00BF000002401C0800200000000024
:100AA000094A002313600C215943084A895800223F
:100AB0000A60074941F833200133072BF3D1054B76
:100AC0004FF0FF325A60704754080020C0150008EC
:100AD0001C08002000000240000000000000000090
:100AE0002DE9F0410F4615469846044610B91A48BC
:100AF00000F0EEF9627A012000FA02FC174E31682C
:100B00001CEA010F26D116484CEA010340F8325086
:100B1000336000EBC2025B06C2F8048004D0114BC4
:100B20005A6942F001025A6123680F201A680026B0
:100B300022F001021A60217A626800FA01F1116064
:100B40001E6035B1A07A3901FFF7C2FE3046BDE81C
:100B5000F0812846BDE8F081A01500085408002067
:100B60001C080020001002400000000000000000EF
:100B7000FEE7000000000000000000000000000090
:100B8000294B2DE9F0415A6886B002F00C02082A80
:100B9000054615D1DC6A5A685968C2F383420232AD
:100BA000112A08BF1022C90306D504F00F041F49FB
:100BB0000134B1FBF4F400E01D4C02FB04FC01E045
:100BC000DFF868C01B4A02AE02F110084746106801
:100BD0005168344603C4083242452646F7D1596865
:100BE00006AAC1F30311114411F8104C38682CFA0D
:100BF00004F479686A4603C22C605A6806A9C2F3F5
:100C000002220A4412F8182C24FA02F26A605B6885
:100C100003F4605301EB132313F8182CD440AC6099
:100C200006B0BDE8F08100BF0010024000127A005B
:100C300000093D00A01400080000000000000000B2
:100C400010B5074C606820F47F5020F0300040EA77
:100C5000C32343EA022242EA0111616010BD00BFD2
:100C60000010024000000000000000000000000032
:100C7000044B1A6842F001021A601A689207FCD508
:100C8000704700BF0010024000000000000000009C
:100C9000124B984205D103F584339A6942F004025D
:100CA00019E00F4B984205D103F582339A6942F05F
:100CB000080210E00B4B984205D103F580339A6986
:100CC00042F0100207E0084B984205D103F57C433F
:100CD0009A6942F020029A61704700BF0008014003
:100CE000000C014000100140001401400000000011
:100CF00070B50D4616460446FFF7CAFF1349072D87
:100D00008B6943F001038B614FEA860343F00B03C9
:100D10000DD8AD00EDB20F22AA4003FA05F5216807
:100D200021EA0202226022681543256070BD083D59
:100D3000AD00EDB20F22AA40AB40616821EA020289
:100D4000626062681343636070BD00BF00100240C0
:100D500038B51D460446084611460022FFF7C8FF75
:100D60006B1E102B00F29380DFE803F009111A913B
:100D700091919191919191919191242C3400444BB6
:100D8000636003F564439A6942F4006229E04FF01E
:100D90008043636003F50433DA6942F0010206E040
:100DA0003C4B636003F50333DA6942F00202DA6117
:100DB000394B18E0394B636003F550439A6942F4AC
:100DC00080320EE0364B636003F54C439A6942F47F
:100DD000003206E0334B636003F548439A6942F4FE
:100DE00080229A61304B2360636881221A8000223E
:100DF0009A80BDF814209DF810109A854FF4404257
:100E0000A3F844209DF818200139002A0CBF0622BF
:100E10000722032937D8DFE801F0020F1C2903F16C
:100E20003401A160198B89B241EA02121A831A8C2B
:100E300092B242F0010225E003F13801A160198B62
:100E400089B241EA02321A831A8C92B242F010023D
:100E500018E003F13C01A160998B89B241EA0212CA
:100E60009A831A8C92B242F480720BE003F1400133
:100E7000A160998B89B241EA02329A831A8C92B2AC
:100E800042F480521A84A36800221A8038BD38BD0B
:100E9000002C0140000400405C080020004001409C
:100EA00000440140004801406008002000000000AC
:100EB00043689A8D92B2514307D002681268B2FB20
:100EC000F1F101B1013989B21985704700000000C4
:100ED000013810F8013F2BB1034A11880906FBD5F0
:100EE0009380F6E7704700BF003801400000000023
:100EF000D0F8C4305A1CC0F8C4201970D0F8C430DF
:100F000000F1BD02934228BFC0F8C4007047000042
:100F100001460148FFF7ECBF640800200000000014
:100F20000EB417B5D0F8C430D0F8C01004468B42C8
:100F300028BFBD31C91A154806AB059A019300F0C8
:100F4000F7F8D4F8CC30184494F8C830C4F8CC0082
:100F5000B3B1002384F8C8300D4BD4F8C0205B6ACD
:100F600004F1BD01DA608A1A904228BF104692222D
:100F7000C4F8D00058601A601A6842F001021A6082
:100F800003B0BDE8104003B0704700BF110F000868
:100F9000C015000800000000000000000000000074
:100FA00070B50123002580F8C8300E46C0F8C40093
:100FB000C0F8C000C0F8CC50092115482A46FFF7F8
:100FC00097FE144B144C9A69092142F480429A61AD
:100FD0004FF40053A381114B114A9B68B3FBF6F603
:100FE000B6B2268180230F4E2582A3820823A381D7
:100FF00030462B46FFF774FD33680B4A9A60922205
:101000001A60A3899BB243F40053A38170BD00BF53
:10101000000801400010024000380140580800203C
:10102000A1100008E4150008043801400000000089
:10103000194A10B5536A0F24196821F0010119608B
:10104000916A92F82C2004FA02F20A60D0F8C040AB
:10105000D0F8D010D0F8CC20521A214400F1BD04B1
:10106000A14228BF0146C0F8CC20C0F8C0101AB970
:10107000012380F8C83010BDD960611A914238BF91
:101080000A46C0F8D0205A6092221A601A6842F0CC
:1010900001021A6010BD00BFC0150008000000006A
:1010A0000148FFF7C5BF00BF640800200000000032
:1010B000F0B5644685B00025B0FBF1F301FB1302E7
:1010C000092A05F1010594BF3032373201AED2B2A0
:1010D0007719184607F8012C002BEDD12F4623680D
:1010E0009D420ED2227CE3680AB1302000E020202D
:1010F0009847A368626801339342A3600FD2013519
:10110000EDE7A3686568ED1AAF4238BF3D462B4452
:10111000A36025B1013DE368705D9847F9E705B02C
:10112000F0BD000000000000000000000000000012
:101130002DE9F0431C4687B00023049002910393ED
:1011400001938DF814301078561C50B125280CD01E
:10115000049B9847039B029A013393420393C0F088
:101160009580039807B0BDE8F083002201921146F4
:1011700016F8013BA3F13000C5B2092D07D812B90A
:10118000302B08BF01210A2303FB0202F0E7019282
:1011900003F0DF02532A8DF8141010D1251D2468A6
:1011A00014F8013B002B6BD0039B5A1C0392029A4C
:1011B000934265D214F8010C049B9847F0E7632B27
:1011C0000BD1049B20789847039B029A01339342EA
:1011D00004F10405039353D3C3E7582B05D1251D10
:1011E0000DF1040C2068102106E0752B07D1206852
:1011F000251D0DF1040C0A21FFF75AFF40E0642B76
:1012000011D1251D2468002C09DA049B2D20984754
:10121000039B029A013393420393A2D264420DF1DD
:10122000040C2046E7E7412B29D101238DF8143027
:101230000223D4F80090D4F8048004F10C05A768C8
:101240000193002444451BDA002C0CDC0DF1040C46
:1012500019F804001021FFF72BFF029B039A9A4212
:101260000ED20134EEE7002FF0D0049BF8B298477D
:10127000039B029A013393420393E7D300E0254690
:10128000029B039A9A42BFF46CAF2C4632465AE74F
:1012900010B504464820FFF773F90B4B9B6813F019
:1012A000010223790CD06BB9202383F3118801212B
:1012B00021712068FEF7ACFF002383F3118810BD75
:1012C00003B1227110BD00BF000801400000000002
:1012D00008B50248FFF7DCFFFBE700BF3809002034
:1012E000104B07B59A69016042F004029A61A3F5B8
:1012F0008433DA684FF4807122F00102DA601A68F0
:10130000094822F00F021A601A6842F008021A60B7
:10131000002300934022054BFFF71AF903B05DF854
:1013200004FB00BF0010024040090020D112000859
:10133000F0B5054645F8182B85B00223002740F28A
:10134000CE7204460E46009301922846012202976F
:101350000749FFF7FDFC284642F20F71FFF7A8FD91
:10136000236A1E806685A68584F8247005B0F0BDCA
:101370000008014000000000000000000000000024
:1013800038B504460D46202383F31188036913B151
:101390000430FFF755F9002383F3118884F82430D3
:1013A000A38DAB421AD0628D40F22A33043293FBF4
:1013B000F2F2A5850132202383F311884FF47A736A
:1013C0005A43A2F57A72B2FBF3F1201D0131044AAF
:1013D0000023FFF70DF9002383F3118838BD00BF08
:1013E0009114000800000000000000000000000050
:1013F000438D828D10B59A4234BF03F1FF33013320
:101400004385428D036A04461A8090F82430428D49
:10141000012B08D1C38C9A4201D1038D02E0018DCA
:10142000914200D1A385A38D934218D0202383F34A
:10143000118840F22A33043293FBF2F24FF47A73AC
:1014400002FB0332A2F57A72B2FBF3F1201D0131E7
:101450000D4A0023FFF7CCF8002383F31188638D36
:101460008BB9A38D7BB994F82430012B0BD0236862
:101470004BB1202383F3118802212068FEF7C8FEB8
:10148000002383F3118810BD9114000800000000B0
:101490000148FFF7ADBF00BF400A00200000000078
:1014A0000000000000000000010203040607080914
:1014B0000000000001020304000000000000000022
:1014C00022636845767452656769737465724D610D
:1014D000736B22282900226368457674556E726505
:1014E00067697374657222282900226368457674DF
:1014F0005369676E616C492228290022636845762A
:101500007442726F6164636173744D61736B4922DD
:101510002829002263684576745369676E616C22DE
:101520002829002263684576744469737061746386
:1015300068222829000000000000000000000000D0
:10154000226368546864437265617465492228297E
:10155000002263685468645365745072696F7269DD
:10156000747922282900226368546864536C656585
:101570007022282900000000000000000000000088
:1015800022636856545365744922282900226368EF
:1015900056545265736574492228290000000000E2
:1015A00022646D61416C6C6F63617465222829004F
:1015B00022646D6152656C656173652228290000A3
:1015C000080002400400024000000B001C00024022
:1015D0000400024004010C003000024004000240FC
:1015E00008020D0044000240040002400C030E00FB
:1015F000580002400400024010040F006C0002403A
:101600000400024014051000800002400400024063
:10161000180611000000000000000000000000009B
:101620000D43616C6D61303420204148423D257589
:101630003B20415042313D25753B20415042323DD7
:0F16400025753B205077724373723D25580D007E
:04000005080000F0FF
:00000001FF
