:020000040800F2
:1000000000040020110C0008110B0008910F0008DB
:10001000910F0008910F0008910F0008910F000840
:10002000910F0008910F0008910F0008910F000830
:10003000910F0008910F0008910F0008810B000834
:10004000910F0008910F0008910F0008910F000810
:10005000910F0008910F0008910F0008910F000800
:10006000910F0008D10D0008110E0008610E000864
:10007000910F0008910F0008910F0008910F0008E0
:10008000910F0008910F0008910F0008910F0008D0
:10009000910F0008910F0008910F0008910F0008C0
:1000A000910F0008910F0008910F0008910F0008B0
:1000B000910F0008910F0008910F0008910F0008A0
:0C00C000E101000829020008D10000083E
:0400CC000102000825
:1000D000034BB42252001A6000229A61DA61704721
:1000E000AC0D002000000000000000000000000037
:1000F00070B5344C00220921201C00F099FF201C0F
:1001000000F04EFF201C00F0A3FF00F0E9FD00F01E
:1001100057FB2D4DE121281C490201F011F80CCCB0
:10012000281C2A4900F0BCFF294801F029F9294D73
:10013000E121281C490001F0D3F8274B802259699E
:1001400092020A435A619023DB0519680322914306
:100150001960D968B4209143D960DA6802210A4352
:10016000DA60884000F004FC012600242D2000F015
:10017000FFFB9023DB051A69D1071ED5002C1CD18B
:10018000002E05D0E121281C490001F0D1F804E03F
:10019000E121281C490001F0A3F801246640EA6926
:1001A000002AE3D1AB69002BE0D19023DB051B696A
:1001B000D907DBD401F07CFAD8E71B69DB07DB1732
:1001C0001C40ECE7A00C0020700D0020A01A0008D5
:1001D000801A0008AC0D0020001002400000000052
:1001E00008B5034B002B02D0024801F0C9FA08BD44
:1001F000000000009117000800000000000000004F
:1002000010B5064C2378002B07D1054B002B02D0EC
:10021000044800E000BF0123237010BD280C00201B
:1002200000000000D81A000808B5084B002B03D0C6
:100230000748084900E000BF07480368002B03D0C7
:10024000064B002B00D0984708BDC04600000000B8
:10025000D81A00082C0C0020280C002000000000F8
:1002600002B4714649084900095C49008E4402BC49
:100270007047C046000000000000000000000000C1
:10028000002934D00123002210B488422CD3012449
:100290002407A14204D2814202D209011B01F8E7DE
:1002A000E400A14204D2814202D249005B00F8E797
:1002B000884201D3401A1A434C08A04202D3001BC3
:1002C0005C0822438C08A04202D3001B9C082243F6
:1002D000CC08A04202D3001BDC082243002803D034
:1002E0001B0901D00909E3E7101C10BC7047002866
:1002F00001D00020C04307B4024802A14018029078
:1003000003BDC0461D0000000029F0D003B5FFF773
:10031000B9FF0EBC4243891A1847C04600000000CE
:100320007047C04600000000000000000000000010
:1003300008B5074B1B68002B03D1064B1B68002B2D
:1003400004D0054A054B1A6000F0CAFB08BDC04640
:10035000D00D0020D40D0020AA180008CC0D0020DC
:10036000084B10B51B68084C002B02D12368002BEA
:1003700004D0064A064B1A6000F0B2FB012323604A
:1003800010BDC046D00D0020D40D0020AF180008CD
:10039000CC0D002000000000000000000000000064
:1003A000084B10B51B68084C002B02D12368002BAA
:1003B00004DC064A064B1A6000F092FB002323601F
:1003C00010BDC046D00D0020D40D0020B418000888
:1003D000CC0D002000000000000000000000000024
:1003E000084B10B51B68084C002B02DD2368002B5E
:1003F00004D0064A064B1A6000F072FB012323600A
:1004000010BDC046D00D0020D40D0020B918000842
:10041000CC0D0020000000000000000000000000E3
:10042000084B10B51B68084C002B02DD2368002B1D
:1004300004DC064A064B1A6000F052FB00232360DE
:1004400010BDC046D00D0020D40D0020BE180008FD
:10045000CC0D0020000000000000000000000000A3
:1004600010B572B6084C2368002B03DB074B1B68E2
:10047000002B04D0064A074B1A6000F031FB2368BA
:100480000133236062B610BDD00D0020D40D0020D2
:10049000C3180008CC0D0020000000000000000080
:1004A00010B572B6084C2368002B03DD074B1B68A0
:1004B000002B04D0064A074B1A6000F011FB23689A
:1004C000013B236062B610BDD00D0020D40D00208A
:1004D000C8180008CC0D002000000000000000003B
:1004E00008B5074B1B68002B03DB064B1B68002B72
:1004F00004DC054A054B1A6000F0F2FA08BDC0465C
:10050000D00D0020D40D0020CD180008CC0D002007
:1005100008B5074B1B68002B03D1064B1B68002B4B
:1005200004DC054A054B1A6000F0DAFA08BDC04643
:10053000D00D0020D40D0020D3180008CC0D0020D1
:1005400008B5024B186000F0CBFA08BDCC0D0020B6
:10055000034B00225B601B609A605B611B6170470C
:10056000D80D002000000000000000000000000086
:1005700038B5041C651CFFF7B3FFEB7F002B01D0DF
:100580000E2B02D10848FFF7DBFF0023EB77A268B0
:10059000064B1B6899689142FBD25A6823606260DF
:1005A000201C5C60146038BD00190008D80D0020C4
:1005B00010B5041C72B6FFF713FF631CDB7F002B22
:1005C00005D001235B42A362201CFFF7D1FFFFF798
:1005D00027FF62B610BD0000000000000000000010
:1005E00037B5051CFFF794FF0E4B14219C69621C64
:1005F000D577E21CD1771A681D1C11684B60196011
:100600009A6101210132D177E3696A46243A934223
:1006100002D90548FFF794FFA869211C00F0C8FA29
:1006200037BDC046D80D0020121900080000000098
:1006300070B50E1C86B0051CFFF76AFF0C4C731CCE
:100640000FD0A36901A8311C0A4A00F0F1F9281C57
:10065000FFF7C6FF049B002B06D001A800F018FA94
:1006600002E0281CFFF7BCFFA369986A06B070BDC2
:10067000D80D0020B10500080000000000000000B7
:1006800073B5041C0D1CFFF743FF0F4EA268B06941
:10069000A56283689A4203D8201CFFF769FF12E025
:1006A000FFF766FF631C0122DA776A46C369243AC2
:1006B000051CB461934202D90448FFF741FF201C96
:1006C000291C00F075FA73BDD80D0020121900081E
:1006D00037B50E4C2368A5691A68281C546022603F
:1006E000A36101220133DA77EB1C1422DA77FFF7DA
:1006F0003FFF6A46EB69243A934202D90448FFF768
:100700001FFF291CA06900F053FA37BDD80D002047
:1007100012190008000000000000000000000000A6
:10072000124B37B51A689C6911681D1C4B60196023
:100730009A6101210132D17762180021D177A26834
:100740001B6899689142FBD85A68236062605C60BC
:100750001460E3696A46243A934202D90448FFF7D9
:10076000EFFEA869211C00F023FA37BDD80D002048
:100770001219000800000000000000000000000046
:1007800008B5064B9B690333DB7F002B02D1FFF7D3
:100790009FFF01E0FFF7C4FF08BDC046D80D002051
:1007A000024B034A9B699A61FEE7C046D80D0020C0
:1007B00030190008000000000000000000000000E8
:1007C00007B5154B154A0A20DA60002100F0E8FA57
:1007D0000B20802100F0E4FAFFF7BAFE00F018F9D0
:1007E00040210F4800F05CF80E4B01229861431C39
:1007F000DA770D4BC361FFF79BFD62B6094B0B4ADD
:100800009B690B489A6100230093C8210122094B80
:1008100000F08EF807BDC04600ED00E00000FA05CC
:10082000440C0020D80D002000040020E01800082F
:10083000F80D0020A10700080000000000000000E3
:1008400070B5FFF74DFE144B9B69DA1CD17F002970
:1008500001D00139D1775A6A104D01325A62EB68E2
:100860000133EB602B68AB4214D09A68013A9A606E
:100870002C68A368002B0DD1E668E36023685D60F7
:100880002B60FFF7CDFD62B62069B04772B6FFF767
:10089000A7FDEDE770BDC046D80D0020C00E0020BA
:1008A000431C02228160DA7700238218D377142157
:1008B000C21CD17743628361054B5A69036142616F
:1008C0005861031C2C331061C3620433C361704749
:1008D000D80D002000000000000000000000000013
:1008E000F8B5041C0F1C151C1E1CFFF7F9FD002C8D
:1008F00005D0B72F03D97F2D01D8002E02D108488B
:10090000FFF71EFE381C069B24382018E060436168
:10091000044B06610362291C201CFFF7C1FFF8BDD0
:1009200040190008D10B0008000000000000000082
:10093000F7B5071C0E1C151C1C1C72B6FFF710FD2A
:10094000089B2A1C0093311C231C381CFFF7C8FF8E
:100950000021041CFFF794FEFFF722FD62B6201C65
:10096000FEBD0000000000000000000000000000CC
:1009700010B5041E02D10748FFF7E2FD72B6FFF77B
:10098000EFFC211C0620FFF753FEFFF709FD62B6BE
:1009900010BDC046781900080000000000000000EB
:1009A0000E4B10B59C69A062231CE06A2C33984260
:1009B00004D00268E262FFF7DBFDF5E7A31CDB7FF2
:1009C0009A0704D1226963691A61226953610E2072
:1009D000FFF706FE0248FFF7B3FD10BDD80D00205B
:1009E000871900080000000000000000000000005F
:1009F00010B5041C72B6FFF7B3FC201CFFF7D0FF44
:100A000010BD000000000000000000000000000019
:100A1000044B012252429A6000225B601B60DA6044
:100A20007047C046C00E002000000000000000001B
:100A3000F8B5041C0D1C161C1F1CFFF751FD002CE3
:100A400003D0002E01D0002D02D10D48FFF778FD14
:100A50000C4A27611368E660111C9A68AA4202D208
:100A6000AD1A1B68F9E75A68236062605C60146025
:100A7000A5608B4202D09A68551B9D60F8BDC046A8
:100A8000C0190008C00E0020000000000000000097
:100A900010B5041CFFF724FD002C02D10B48FFF712
:100AA0004FFDE068002802D10948FFF749FD23689F
:100AB000084A934203D09968A0680A189A6062684D
:100AC000136023685A600023E36010BDCD1900084D
:100AD000DC190008C00E002000000000000000002B
:100AE00072B6FEE7000000000000000000000000F9
:100AF000FFF736FCFFF744FEFFF752FC8022024B63
:100B000012065A60FEE7C04600ED00E0000000005B
:100B1000EFF30983203383F3098862B6704700003E
:100B20000F3022D072B6EFF309831A1C203A82F3F9
:100B300009880E49802288695204203BDA61C21C70
:100B4000D27F8068002A05D00A689268904292415C
:100B5000524204E00968896881425241D2B2002AB7
:100B600001D0034A00E0034A9A617047D80D002083
:100B7000F10A0008FC0A0008000000000000000064
:100B800010B57446FFF76CFC72B6FFF729FCFFF74F
:100B900057FEFFF745FC62B6FFF782FC201CFFF70B
:100BA000BFFF10BD000000000000000000000000BA
:100BB000F0B544464D4656465F46F0B46B46CB60B2
:100BC000C3689D46F0BCA046A946B246BB46F0BDF0
:100BD00008B5FFF7E5FB62B6281CA047FFF708FF42
:100BE00008BD000000000000000000000000000040
:100BF000704700000000000000000000000000003E
:100C0000FEE70000000000000000000000000000FF
:100C100072B6234B83F30988022383F31488BFF34E
:100C20006F8F204B1E4A2049181D043B8B4203D274
:100C30001E491960031CF6E71D4B191D043B9A421F
:100C400003D91A4818600B1CF7E700F019FA0023C3
:100C5000184A19499A188A4204D21849C9580433C3
:100C60001160F5E7164B174A191D043B934203D256
:100C700000221A600B1CF6E7FFF7BAFF124C134B69
:100C80009C4202D208CC9847F9E7FFF731FA104CA2
:100C9000104B9C4202D208CC9847F9E7FFF7B0FF0F
:100CA0000008002004000020000400205555555580
:100CB0000404002000080020280C0020D81A000896
:100CC0002C0C0020D00E0020C0000008CC00000832
:100CD000CC000008D0000008000000000000000068
:100CE00008B500F005F808BD000000000000000095
:100CF00038B5114C0025A36A01235B42A362A562AB
:100D0000226923612561E3680C4AFA211343E360F9
:100D10000B4BE56018688900FFF7B2FA094B013800
:100D2000072258609D601A60E26980235B051343C7
:100D3000E36100F0BDF838BD00100240FFFFBFFFC7
:100D4000A00C002010E000E0000000000000000007
:100D500082080F4B920070B5D2180324C0239B0069
:100D60000440D558E400FF26A640B543A1402C1C02
:100D70000C43D4501F23034001229A40131C400906
:100D8000034A80008018C02252008350036070BD67
:100D900000E100E000000000000000000000000092
:100DA0008308084A10B59B0003249B182040A040EC
:100DB0009A69FF248440A2438140101C0843986133
:100DC00010BDC04600ED00E0000000000000000083
:100DD00010B57446FFF744FB084B0F221968114009
:100DE000074A59601368002B01D050689847FFF7F5
:100DF00057FB201CFFF794FE10BDC04600000240C8
:100E0000740C002000000000000000000000000042
:100E100038B57546104CFFF723FB21680906090F0A
:100E200007D00E4A0B0163609368002B01D0D06895
:100E3000984721680905090F08D0074A0B0253603B
:100E4000064A1369002B01D050699847FFF728FB29
:100E5000281CFFF765FE38BD00000240740C00201E
:100E600038B57546104CFFF7FBFA21680904090FE5
:100E700007D00E4A0B0363609369002B01D0D06941
:100E8000984721680903090F08D0074A0B045360EB
:100E9000064A136A002B01D0506A9847FFF700FBFF
:100EA000281CFFF73DFE38BD00000240740C0020F6
:100EB0000B4A002313600B4A0B4913600B4A136063
:100EC0000B600B4993600B600A4913610B600A4980
:100ED00093610B601362094B012252425A607047C2
:100EE0009C0C0020080002401C000240740C0020F2
:100EF000300002404400024058000240000002401E
:100F0000F7B5041C0191151C0093002802D1194863
:100F1000FFF716FB184A607A01231F1C11688740EF
:100F20008446181C394224D114486646F6003550D0
:100F3000B446009E6044394346601160480603D0C1
:100F40000F4A51690B43536123680F221968002629
:100F500091431960207A616882400A601E60B54240
:100F600006D0019AA07A9101FFF7F2FE301C00E052
:100F7000281CFEBDF01900089C0C0020740C0020F9
:100F8000001002400000000000000000000000000F
:100F9000FEE700000000000000000000000000006C
:100FA000F0B51C4C0C23626887B0051C1340082B5D
:100FB00014D1E16A6668B602360F0236112E00D1EE
:100FC00010266368DA0306D50F2319400131124851
:100FD000FFF756F900E01148464300E00E4E02AF1D
:100FE000381C0F49102200F083FB63680C491B0674
:100FF0001B0FFB5C1031DE402E606846082200F0BB
:1010000077FB63686A465B055B0FD35CDE406E600E
:1010100007B0F0BD0010024000127A0000093D0048
:101020008018000800000000000000000000000020
:10103000054B10B505485C681202204002430801C8
:10104000111C0143596010BD001002400FF8FFFF52
:10105000064A10B5046806481368111C0122844230
:1010600001D8934300E013430B6010BD0020024001
:1010700000366E01000000000000000000000000CB
:10108000064B01211A680A431A601968034A880747
:10109000FBD5936901210B43936170470010024017
:1010A0000EB4F3B507AA08CA214F041C191C381C3A
:1010B000019200F085FA051E2D2D00D92D25261C44
:1010C0003A363378002B13D0391C2A1C201C00F030
:1010D0000FFB631923636363002323873370154B6E
:1010E0000121DB68DC605D601A680A431A601AE05F
:1010F000206B238F261AEB182D362387391CB54217
:1011000005D22A1C00F0F4FA236B5D190AE0321CA8
:1011100000F0EEFAAD1B04D0B919201C2A1C00F017
:10112000E7FA65192563F3BC08BC03B01847C0464D
:10113000A80C0020401A0008000000000000000079
:10114000F8B52B4B80225969002592020587006370
:10115000406301260A433A3006705A619022D20554
:101160001068244908401060146880200003204360
:101170001060546820482040908050681F4C80B216
:101180009080D0680840D060D068D06090680140FE
:1011900091609068C021090301439160516AF02079
:1011A00081435162516A1020014351629969802242
:1011B000D2010A439A61124BE12158684902FFF7B4
:1011C0005FF8104F80B28023A0816560A360082380
:1011D0002360381C2B1C311C0B4AFFF791FE3B6827
:1011E0000A4A9A600A4A1A6023681E432660F8BDBC
:1011F00000100240FFFFF3FFFFFD00000038014038
:10120000A00C00204C1A0008711200082838014078
:10121000922000000000000000000000000000001C
:10122000124A10B5D3680F211C688C431C601469E6
:10123000127D91402160028F002A03D13A300123B0
:10124000037012E0446B011B2D31DC608A4204D232
:101250005A60A2184263002202E05960521A4063A9
:1012600002871A6801210A431A6010BD401A00085B
:1012700008B50248FFF7D4FF08BDC046700D002036
:10128000C269816910B58A4214D001D2013200E0EE
:10129000013AC261017F8022D2055163C169041DF8
:1012A00004310068FEF7ECFF034A411C0023201CB8
:1012B000FFF7BEFB10BDC046C112000800000000D1
:1012C00008B572B6FFF78CF80348FFF7D9FFFFF7B0
:1012D000A7F862B608BDC046AC0D002000000000B3
:1012E00070B5041C0E1C72B6FFF73AF82369251D71
:1012F000002B02D0281CFFF7CBFBE169FF23A36181
:1013000026600431301CFEF7BBFF054A411C002358
:10131000281CFFF78DFBFFF743F862B670BDC0468F
:10132000C1120008000000000000000000000000E2
:10133000F8B5041C0F1C72B6FFF712F82369261DBE
:10134000002B02D0301CFFF7A3FBE16900252760CA
:10135000A5610431381CFEF793FF054A411C2B1C84
:10136000301CFFF765FBFFF71BF862B6F8BDC046FF
:10137000C112000800000000000000000000000092
:10138000F7B5017C0368019190218288C9058B42E1
:1013900004D15F4980244D69A4020EE05D498B426F
:1013A00004D15B4980244D69E40206E05A498B422E
:1013B00005D1574980244D69E4032C434C61550005
:1013C00003241F68AC40E1430F401F6002261F68E2
:1013D000AE40351C3D431D605D680127ADB29740AE
:1013E000BD439D805D68ADB29D80DD680D40DD60D0
:1013F000DD68DD609D682940996099680C4307218C
:10140000914289419C604942072A00D9083A8900E3
:101410005B18196A92000F249440A143019C196241
:10142000196A9440221C0A431A6283683B4A934219
:1014300004D1374A8021946909012FE08022D20526
:10144000934203D1324A0124D16905E0344A9342E0
:1014500005D12F4A0224D1692143D16120E0314ACC
:10146000934204D12A4A8021D4694900F4E72E4AE4
:10147000934204D1264A8021946949020EE02B4A06
:10148000934204D1224A80219469890206E0284AC5
:10149000934205D11E4A80219469C902214391617A
:1014A000FF22C068DA6281221A80013800229A8005
:1014B00003282CD8FEF7D4FE020B151F9A69602171
:1014C00092B20A431A831A6A012192B21DE0996905
:1014D000C02289B2D2010A431A831A6A102192B239
:1014E00013E0DA69602192B20A439A83196A802272
:1014F00089B2520009E0D969C02289B2D2010A43F7
:101500009A83196A802289B252010A431A84F7BD6C
:10151000001002400004004800140048002C014064
:101520000004004000200040004001400044014011
:101530000048014000000000000000000000000022
:10154000F0B589B002930EAB1B78071C0D1C0192FD
:1015500003930024281C0199FEF7D6FE281C0E1CBC
:101560000199FEF78DFE0134051C092E01D8303695
:1015700000E0373605A90B19F6B2013B1E70002DAD
:10158000E8D1201C3B1CE21B029DD218AA4207DABC
:10159000039D3022002D00D120221A700133F2E782
:1015A0001A1C013C0D5D15700132002CF9D1181880
:1015B00009B0F0BD000000000000000000000000C5
:1015C000F0B5061C85B00B784D1C002B67D0252B81
:1015D00001D0037026E000273B1C0135691E097805
:1015E0000C1C303C0294E4B2092C09D8002B02D127
:1015F000302900D101270A214B4302995B18ECE7FF
:1016000073290AD1141D1268031C1178181C0029B3
:1016100026D0197001320133F7E7632904D113682A
:1016200004320370013038E0582904D11168141DC8
:101630000097102212E0752903D11168141D00973C
:101640000BE064290ED11168141D002903DA2D2343
:10165000037049420130002300930A22FFF770FF14
:10166000221C1AE0412918D1141C1768526808344A
:1016700002940392002403998C420DDA002C02DDBF
:101680002023037001300123395D102200930223CF
:10169000FFF756FF0134EEE7029A291C93E7037027
:1016A000801B05B0F0BD000000000000000000003D
:1016B00008B572B6FEF754FE0A4B802259685200F4
:1016C0000A4309495A60086904221043086102214B
:1016D000196019680A431A6030BFFEF761FE62B6EE
:1016E00008BDC0460070004000ED00E000000000B2
:1016F000F0B50F2A35D9031C0B439C0735D1161CB6
:10170000103E36093501451910350C1C031C27689D
:101710001F6067685F60A7689F60E7681034DF60DC
:101720001033AB42F3D1731C1B01C518C9180F232A
:101730001340032B1BD91C1FA4080134A400002351
:10174000CE58EE500433A342FAD1ED18C918032342
:101750001A4005D00023CC5CEC5401339342FAD1FB
:10176000F0BD051C002AF5D1FAE7051CF2E71A1CAA
:10177000F8E7C04600000000000000000000000084
:1017800008B5011C00220020002300F019F808BD54
:1017900038B5094B094DED1AAD1009D0013DAC002B
:1017A000E41800E0013D23689847043C002DF9D17E
:1017B00000F090F938BDC046CC000008D000000809
:1017C000F0B54F464646C0B498462B4BA4251B683F
:1017D0006D005C5983B0061C0F1C91460193002CD0
:1017E00044D065681F2D1ADD244B002B02D1012047
:1017F00040421CE0C820400000E000BF041EF6D0BC
:1018000000254560A42301985B00C0580199206021
:10181000CC50C4235B00E550C6235B00E550002E8E
:101820000AD16B1C0235AD00636000202F5103B05C
:101830000CBC90469946F0BDAB00E31888224846A0
:101840009850C4204000221810680121A940084384
:1018500010608422520040469850022EE1D1C622E8
:101860005200A318186801431960DAE71C1C4D34B4
:10187000FF345C51B5E7C046D01A000800000000F4
:101880000000000000000000010203040607080930
:10189000000000000102030400000000000000003E
:1018A00053562331005356233200535623330053EB
:1018B00056233400535623350053562336005356CF
:1018C00023370053562338005356233900535623E9
:1018D0003130005356233131000000000000000079
:1018E0006D61696E00168611040430080C1014181E
:1018F0001C20210022240000000000000000000045
:10190000636853636852656164794928292C2023F0
:101910003100737461636B206F766572666C6F77EC
:1019200000000000000000000000000000000000B7
:1019300069646C6500000000000000000000000009
:10194000226368546864437265617465492228297A
:10195000002263685468645365745072696F7269D9
:101960007479222829006368546864526573756D20
:101970006528292C20233100226368546864536C45
:101980006565702228290063685468644578697425
:101990005328292C2023310022636854686457613E
:1019A000697422282900636854686457616974283F
:1019B000292C20233100000000000000000000005E
:1019C00022636856545365744922282900226368AB
:1019D0005654526573657449222829006368565429
:1019E00052657365744928292C20233100000000BA
:1019F00022646D6153747265616D416C6C6F6361DB
:101A000074652228290022646D6153747265616DCA
:101A100052656C6561736522282900646D61537499
:101A20007265616D52656C6561736528292C202390
:101A30003100000000000000000000000000000075
:101A40000800024004000240000009001C0002409F
:101A50000400024004010A00300002400400024079
:101A600008020A0044000240040002400C030B007C
:101A7000580002400400024010040B000000000067
:101A8000000000480F0000000000004001000000BE
:101A90000200000000000000000000000000000044
:101AA0000D546974746143616C6D6120204148423A
:101AB0003D2575204150423D257500000000000085
:101AC00043000000000000000000000000000000D3
:041AD00000080020EA
:041AD400F8B5C0465B
:101AD80000000000EC0A0020540B0020BC0B002082
:101AE80000000000000000000000000000000000EE
:101AF80000000000000000000000000000000000DE
:101B080000000000C01A00080000000000000000EB
:101B180000000000000000000000000000000000BD
:101B280000000000000000000000000000000000AD
:101B3800000000000000000000000000000000009D
:101B4800000000000000000000000000000000008D
:101B5800000000000000000000000000000000007D
:101B6800000000000000000000000000000000006D
:101B7800000000000000000001000000000000005C
:101B88000E33CDAB34126DE6ECDE05000B00000021
:101B9800000000000000000000000000000000003D
:101BA800000000000000000000000000000000002D
:101BB800000000000000000000000000000000001D
:101BC800000000000000000000000000000000000D
:0400000508000C11D2
:00000001FF
